{
  "contractName": "Exam",
  "abi": [
    {
      "inputs": [
        {
          "internalType": "address",
          "name": "bossMan",
          "type": "address"
        }
      ],
      "stateMutability": "nonpayable",
      "type": "constructor"
    },
    {
      "inputs": [],
      "name": "creatorSignator",
      "outputs": [
        {
          "internalType": "address",
          "name": "",
          "type": "address"
        }
      ],
      "stateMutability": "view",
      "type": "function"
    },
    {
      "inputs": [
        {
          "internalType": "string[]",
          "name": "newQuestions",
          "type": "string[]"
        },
        {
          "internalType": "string[]",
          "name": "questionAnswers",
          "type": "string[]"
        },
        {
          "internalType": "address",
          "name": "bossMan",
          "type": "address"
        }
      ],
      "name": "addQuestions",
      "outputs": [
        {
          "internalType": "string",
          "name": "",
          "type": "string"
        },
        {
          "internalType": "bool",
          "name": "",
          "type": "bool"
        }
      ],
      "stateMutability": "nonpayable",
      "type": "function"
    },
    {
      "inputs": [
        {
          "internalType": "string",
          "name": "questionId",
          "type": "string"
        },
        {
          "internalType": "address",
          "name": "bossMan",
          "type": "address"
        }
      ],
      "name": "removeQuestions",
      "outputs": [
        {
          "internalType": "string",
          "name": "",
          "type": "string"
        },
        {
          "internalType": "bool",
          "name": "",
          "type": "bool"
        }
      ],
      "stateMutability": "nonpayable",
      "type": "function"
    },
    {
      "inputs": [
        {
          "internalType": "uint256",
          "name": "totalExamQuestions",
          "type": "uint256"
        },
        {
          "internalType": "uint256[2]",
          "name": "questionNumberRange",
          "type": "uint256[2]"
        }
      ],
      "name": "generateQuestions",
      "outputs": [
        {
          "internalType": "uint256[]",
          "name": "",
          "type": "uint256[]"
        },
        {
          "internalType": "bool",
          "name": "",
          "type": "bool"
        }
      ],
      "stateMutability": "nonpayable",
      "type": "function"
    },
    {
      "inputs": [
        {
          "internalType": "string[]",
          "name": "answers",
          "type": "string[]"
        }
      ],
      "name": "setAnswers",
      "outputs": [
        {
          "internalType": "string",
          "name": "",
          "type": "string"
        },
        {
          "internalType": "bool",
          "name": "",
          "type": "bool"
        }
      ],
      "stateMutability": "nonpayable",
      "type": "function"
    }
  ],
  "bytecode": "0x60806040523480156200001157600080fd5b50604051620013b6380380620013b68339818101604052810190620000379190620000d9565b600073ffffffffffffffffffffffffffffffffffffffff168173ffffffffffffffffffffffffffffffffffffffff1614156200007257600080fd5b80600160006101000a81548173ffffffffffffffffffffffffffffffffffffffff021916908373ffffffffffffffffffffffffffffffffffffffff16021790555060c86000819055505062000153565b600081519050620000d38162000139565b92915050565b600060208284031215620000ec57600080fd5b6000620000fc84828501620000c2565b91505092915050565b6000620001128262000119565b9050919050565b600073ffffffffffffffffffffffffffffffffffffffff82169050919050565b620001448162000105565b81146200015057600080fd5b50565b61125380620001636000396000f3fe608060405234801561001057600080fd5b50600436106100575760003560e01c806339492d381461005c5780639c47475a1461007a578063a34b42ab146100ab578063f3f5636b146100dc578063f3fb63d01461010d575b600080fd5b61006461013e565b6040516100719190610f61565b60405180910390f35b610094600480360381019061008f9190610dcf565b610164565b6040516100a2929190610f7c565b60405180910390f35b6100c560048036038101906100c09190610cbb565b6103ab565b6040516100d3929190610fac565b60405180910390f35b6100f660048036038101906100f19190610cfc565b6104de565b604051610104929190610fac565b60405180910390f35b61012760048036038101906101229190610d7b565b6106bc565b604051610135929190610fac565b60405180910390f35b600160009054906101000a900473ffffffffffffffffffffffffffffffffffffffff1681565b606060003373ffffffffffffffffffffffffffffffffffffffff16600160009054906101000a900473ffffffffffffffffffffffffffffffffffffffff1673ffffffffffffffffffffffffffffffffffffffff16146101c257600080fd5b60008414156101d057600080fd5b600280146101dd57600080fd5b600080600090505b85811015610348576000856001600281106101fc57fe5b6020020151630bebc2008161020d57fe5b06925060005b60028054905081101561025c57836002828154811061022e57fe5b906000526020600020906003020160000154141561024f576001915061025c565b8080600101915050610213565b508061034257600260405180606001604052808581526020016040518060200160405280600081525081526020016040518060200160405280600081525081525090806001815401808255809150506001900390600052602060002090600302016000909190919091506000820151816000015560208201518160010190805190602001906102ec9291906109e9565b5060408201518160020190805190602001906103099291906109e9565b50505060038390806001815401808255809150506001900390600052602060002001600090919091909150558180600101925050600090505b506101e5565b50600360018180548060200260200160405190810160405280929190818152602001828054801561039857602002820191906000526020600020905b815481526020019060010190808311610384575b5050505050915092509250509250929050565b606060003373ffffffffffffffffffffffffffffffffffffffff16600160009054906101000a900473ffffffffffffffffffffffffffffffffffffffff1673ffffffffffffffffffffffffffffffffffffffff161461040957600080fd5b60028054905083511461043b5760006040518060a00160405280606b81526020016111b3606b913990915091506104d9565b60005b835181101561049a5783818151811061045357fe5b60200260200101516002828154811061046857fe5b9060005260206000209060030201600201908051906020019061048c9291906109e9565b50808060010191505061043e565b5060016040518060400160405280601e81526020017f5375636365737366756c6c79207772697474656e20746f206d656d6f7279000081525090915091505b915091565b6060600080855114156104f057600080fd5b6000845114156104ff57600080fd5b600073ffffffffffffffffffffffffffffffffffffffff168373ffffffffffffffffffffffffffffffffffffffff16141561053957600080fd5b600160009054906101000a900473ffffffffffffffffffffffffffffffffffffffff1673ffffffffffffffffffffffffffffffffffffffff168373ffffffffffffffffffffffffffffffffffffffff16146105d05760006040518060400160405280600c81526020017f66616c736520626f73734964000000000000000000000000000000000000000081525090915091506106b4565b6000805b8651821080156105e45750855181105b156106b157808060010191505081806001019250506002604051806060016040528060ca815260200189858151811061061957fe5b6020026020010151815260200188858151811061063257fe5b6020026020010151815250908060018154018082558091505060019003906000526020600020906003020160009091909190915060008201518160000155602082015181600101908051906020019061068c9291906109e9565b5060408201518160020190805190602001906106a99291906109e9565b5050506105d4565b50505b935093915050565b6060600080845114156106ce57600080fd5b600073ffffffffffffffffffffffffffffffffffffffff168373ffffffffffffffffffffffffffffffffffffffff16141561070857600080fd5b600160009054906101000a900473ffffffffffffffffffffffffffffffffffffffff1673ffffffffffffffffffffffffffffffffffffffff168373ffffffffffffffffffffffffffffffffffffffff161461079f5760006040518060400160405280600c81526020017f66616c736520626f73734964000000000000000000000000000000000000000081525090915091506109e2565b60005b6002805490508110156109e057600281815481106107bc57fe5b9060005260206000209060030201600001546040516020016107de9190610f46565b60405160208183030381529060405280519060200120856040516020016108059190610f2f565b6040516020818303038152906040528051906020012014156109d35760606002828154811061083057fe5b90600052602060002090600302016001018054600181600116156101000203166002900480601f0160208091040260200160405190810160405280929190818152602001828054600181600116156101000203166002900480156108d55780601f106108aa576101008083540402835291602001916108d5565b820191906000526020600020905b8154815290600101906020018083116108b857829003601f168201915b505050505090506002600160028054905003815481106108f157fe5b90600052602060002090600302016002838154811061090c57fe5b9060005260206000209060030201600082015481600001556001820181600101908054600181600116156101000203166002900461094b929190610a69565b5060028201816002019080546001816001161561010002031660029004610973929190610a69565b5090505060026001600280549050038154811061098c57fe5b90600052602060002090600302016000808201600090556001820160006109b39190610af0565b6002820160006109c39190610af0565b50508060019350935050506109e2565b80806001019150506107a2565b505b9250929050565b828054600181600116156101000203166002900490600052602060002090601f016020900481019282601f10610a2a57805160ff1916838001178555610a58565b82800160010185558215610a58579182015b82811115610a57578251825591602001919060010190610a3c565b5b509050610a659190610b38565b5090565b828054600181600116156101000203166002900490600052602060002090601f016020900481019282601f10610aa25780548555610adf565b82800160010185558215610adf57600052602060002091601f016020900482015b82811115610ade578254825591600101919060010190610ac3565b5b509050610aec9190610b38565b5090565b50805460018160011615610100020316600290046000825580601f10610b165750610b35565b601f016020900490600052602060002090810190610b349190610b38565b5b50565b5b80821115610b51576000816000905550600101610b39565b5090565b600081359050610b6481611184565b92915050565b600082601f830112610b7b57600080fd5b8135610b8e610b8982611009565b610fdc565b9150818183526020840193506020810190508360005b83811015610bd45781358601610bba8882610c52565b845260208401935060208301925050600181019050610ba4565b5050505092915050565b600082601f830112610bef57600080fd5b6002610c02610bfd82611031565b610fdc565b91508183856020840282011115610c1857600080fd5b60005b83811015610c485781610c2e8882610ca6565b845260208401935060208301925050600181019050610c1b565b5050505092915050565b600082601f830112610c6357600080fd5b8135610c76610c7182611053565b610fdc565b91508082526020830160208301858383011115610c9257600080fd5b610c9d838284611127565b50505092915050565b600081359050610cb58161119b565b92915050565b600060208284031215610ccd57600080fd5b600082013567ffffffffffffffff811115610ce757600080fd5b610cf384828501610b6a565b91505092915050565b600080600060608486031215610d1157600080fd5b600084013567ffffffffffffffff811115610d2b57600080fd5b610d3786828701610b6a565b935050602084013567ffffffffffffffff811115610d5457600080fd5b610d6086828701610b6a565b9250506040610d7186828701610b55565b9150509250925092565b60008060408385031215610d8e57600080fd5b600083013567ffffffffffffffff811115610da857600080fd5b610db485828601610c52565b9250506020610dc585828601610b55565b9150509250929050565b60008060608385031215610de257600080fd5b6000610df085828601610ca6565b9250506020610e0185828601610bde565b9150509250929050565b6000610e178383610f09565b60208301905092915050565b610e2c816110df565b82525050565b6000610e3d8261108f565b610e4781856110b2565b9350610e528361107f565b8060005b83811015610e83578151610e6a8882610e0b565b9750610e75836110a5565b925050600181019050610e56565b5085935050505092915050565b610e99816110f1565b82525050565b6000610eaa8261109a565b610eb481856110c3565b9350610ec4818560208601611136565b610ecd81611173565b840191505092915050565b6000610ee38261109a565b610eed81856110d4565b9350610efd818560208601611136565b80840191505092915050565b610f128161111d565b82525050565b610f29610f248261111d565b611169565b82525050565b6000610f3b8284610ed8565b915081905092915050565b6000610f528284610f18565b60208201915081905092915050565b6000602082019050610f766000830184610e23565b92915050565b60006040820190508181036000830152610f968185610e32565b9050610fa56020830184610e90565b9392505050565b60006040820190508181036000830152610fc68185610e9f565b9050610fd56020830184610e90565b9392505050565b6000604051905081810181811067ffffffffffffffff82111715610fff57600080fd5b8060405250919050565b600067ffffffffffffffff82111561102057600080fd5b602082029050602081019050919050565b600067ffffffffffffffff82111561104857600080fd5b602082029050919050565b600067ffffffffffffffff82111561106a57600080fd5b601f19601f8301169050602081019050919050565b6000819050602082019050919050565b600081519050919050565b600081519050919050565b6000602082019050919050565b600082825260208201905092915050565b600082825260208201905092915050565b600081905092915050565b60006110ea826110fd565b9050919050565b60008115159050919050565b600073ffffffffffffffffffffffffffffffffffffffff82169050919050565b6000819050919050565b82818337600083830152505050565b60005b83811015611154578082015181840152602081019050611139565b83811115611163576000848401525b50505050565b6000819050919050565b6000601f19601f8301169050919050565b61118d816110df565b811461119857600080fd5b50565b6111a48161111d565b81146111af57600080fd5b5056fe416e737765722072616e6765206e6f742073616d65206173207175657374696f6e2072616e67652e2053656e6420746f74616c2072616e6765202873657420756e61737765726564207175657374696f6e73206173206e756c6c206966206e6f7420616e73776572656429a26469706673582212203d9bd97d2c5b46a35cf9490562596d10da88b863a3d29c27fdfd46a39b897f9b64736f6c63430007000033",
  "immutableReferences": {},
  "source": "pragma solidity >=0.7.0 <0.8.0;\r\npragma experimental ABIEncoderV2;\r\n\r\nstruct ExamQuestion {\r\n    uint id;\r\n    string question;\r\n    string answer;\r\n}\r\n\r\ncontract Exam {\r\n    uint id;\r\n    address public creatorSignator;\r\n    ExamQuestion[] questions;\r\n    uint[]  questionNumbers;\r\n\r\n    \r\n    constructor (address bossMan) public {\r\n       //require(bytes(firstQuestion).length != 0);\r\n        //require(bytes(answer).length != 0);\r\n        require(bossMan != address(0));\r\n        \r\n        //questions.push(ExamQuestion(101,firstQuestion, answer));\r\n        // answers.push(answer);\r\n        creatorSignator = bossMan;\r\n        id = 200; //will be using chainlink vrf for this\r\n    }\r\n    \r\n    function addQuestions(string[] memory newQuestions, string[] memory questionAnswers, address bossMan)  \r\n    public  returns (string memory, bool) {\r\n        require(newQuestions.length != 0);\r\n        require(questionAnswers.length != 0);\r\n        require(bossMan != address(0));\r\n        \r\n        if(bossMan != creatorSignator) {\r\n            return (\"false bossId\", false);\r\n        }\r\n        \r\n        \r\n        uint i =0;\r\n        uint j = 0;\r\n        for(; i<newQuestions.length && j < questionAnswers.length ;) {\r\n            j++;\r\n            i++;\r\n            questions.push(ExamQuestion(202,newQuestions[i], questionAnswers[i]));\r\n            // answers.push(questionAnswers[j]);\r\n        }\r\n        \r\n    }\r\n    \r\n    function removeQuestions(string memory questionId, address bossMan)  \r\n    public  returns (string memory, bool) {\r\n        require(bytes(questionId).length != 0);\r\n        require(bossMan != address(0));\r\n        \r\n        if(bossMan != creatorSignator) {\r\n            return (\"false bossId\", false);\r\n        }\r\n        \r\n        for(uint i =0; i<questions.length ; i++) {\r\n            if(keccak256(abi.encodePacked(questionId)) ==keccak256(abi.encodePacked(questions[i].id))) {\r\n                string memory element = questions[i].question;\r\n                questions[i] = questions[questions.length - 1];\r\n                delete questions[questions.length - 1];\r\n                //questions.length--;\r\n                return (element, true);\r\n            } \r\n        }\r\n        \r\n    }\r\n\r\n    // this is option two where if the questions were stored of chain , each of them will be numbered and their range of numbers willcbe passed as an argument\r\n    //into this function alongside the total number of questions needed. This will randomly select the questions to be used on the exam and send the selections back\r\n    function generateQuestions(uint totalExamQuestions, uint[2] memory questionNumberRange) external returns(uint[] memory, bool) {\r\n        require(creatorSignator == msg.sender);\r\n        require(totalExamQuestions != 0);\r\n        require(questionNumberRange.length == 2);\r\n\r\n        uint questionSelected;\r\n        //uint[] memory examQuestions;\r\n        for(uint i =0; i <totalExamQuestions;) {\r\n            bool duplicate = false;\r\n            questionSelected = 200000000 % questionNumberRange[1];\r\n\r\n            for(uint b = 0; b< questions.length ; b++) {\r\n                if(questions[b].id == questionSelected) {\r\n                    duplicate = true;\r\n                    break;\r\n                }  \r\n            }\r\n            if(!duplicate) {\r\n                questions.push(ExamQuestion(questionSelected, \"\", \"\"));\r\n                questionNumbers.push(questionSelected);\r\n                i++;\r\n                duplicate = false;\r\n            }\r\n        }\r\n\r\n        return  (questionNumbers, true);\r\n    }\r\n\r\n    function setAnswers(string[] memory answers ) public returns(string memory, bool) {\r\n        require(creatorSignator == msg.sender);\r\n        \r\n        if(answers.length != questions.length) {\r\n            return (\"Answer range not same as question range. Send total range (set unaswered questions as null if not answered)\", false);\r\n        }\r\n\r\n        for(uint i = 0 ; i < answers.length; i++) {\r\n            questions[i].answer = answers[i];\r\n        }\r\n\r\n        return (\"Successfully written to memory\", true);\r\n    }\r\n    \r\n}",
  "sourcePath": "C:/Users/micha/OneDrive/Desktop/Spring 2021/chainlink_hackathon/ExamCouncilChainLink/smartContracts/contracts/Exam.sol",
  "compiler": {
    "name": "solc",
    "version": "0.7.0+commit.9e61f92b.Emscripten.clang"
  },
  "schemaVersion": "3.3.4",
  "updatedAt": "2021-03-30T22:19:34.345Z",
  "devdoc": {
    "kind": "dev",
    "methods": {},
    "version": 1
  },
  "userdoc": {
    "kind": "user",
    "methods": {},
    "version": 1
  }
}